:100000000C9436000C948E000C94BB000C945C0095
:100010000C945C000C945C000C945C000C945C00F0
:100020000C945C000C945C000C945C000C945C00E0
:100030000C945C000C945C000C945C000C945C00D0
:100040000C94A4020C945C000C9492010C945C003F
:100050000C945C000C945C000C945C000C945C00B0
:100060000C945C000C945C00070FD30F11241FBE8E
:10007000CFEFD4E0DEBFCDBF13E0A0E0B1E0E2E21D
:10008000F2E202C005900D92A63EB107D9F714E046
:10009000A6EEB3E001C01D92A63AB107E1F710E069
:1000A000CCE6D0E004C02297FE010E940D11C836B4
:1000B000D107C9F70C940F030C9400008230E8F4C8
:1000C000E82FFF27EE0FFF1FEA51FC4F718360837B
:1000D000882341F4809169008C7F842B8093690090
:1000E000E89A089580916900837F440F551F440F5B
:1000F000551F842B80936900E99A0895823068F433
:10010000882311F4E89801C0E998E82FFF27EE0F43
:10011000FF1FEA51FC4F1182108208951F920F9227
:100120000FB60F9211242F933F934F935F936F93CA
:100130007F938F939F93AF93BF93EF93FF938091A0
:10014000E6039091E703892B29F0E091E603F09113
:10015000E7030995FF91EF91BF91AF919F918F9127
:100160007F916F915F914F913F912F910F900FBEB3
:100170000F901F9018951F920F920FB60F92112497
:100180002F933F934F935F936F937F938F939F939F
:10019000AF93BF93EF93FF938091E8039091E903AE
:1001A000892B29F0E091E803F091E9030995FF918B
:1001B000EF91BF91AF919F918F917F916F915F91DF
:1001C0004F913F912F910F900FBE0F901F90189558
:1001D000880F991F880F991FE0913801F09139011C
:1001E000E80FF91F808191810895880F991F880F6A
:1001F000991FE0913801F0913901E80FF91F8281D0
:1002000093810895880F991FE0911A01F0911B01C5
:10021000E80FF91F808191810895880F991F880F39
:10022000991FE0910001F0910101E80FF91F82810F
:1002300093810895EF92FF920F931F937B018C019E
:1002400022E030E040E050E00E94DC1020573F42C6
:100250004C4F5F4FCA01B901A80197010E94DC1001
:100260002150304040405040BB2757FDBA95A52F44
:10027000942F832F2F5F3F4F4F4F5F4F8093C500C9
:1002800021502093C400E1ECF0E080818061808304
:100290008081886080838081806880831F910F9136
:1002A000FF90EF900895982F8091C00085FFFCCFBC
:1002B0009093C60008958091EC039091ED032091F6
:1002C000EA033091EB03821B930B60E870E00E941D
:1002D000A71008954091EA035091EB038091EC033D
:1002E0009091ED038417950719F48FEF9FEF089510
:1002F000FA01EA5DFB4F2081CA01019660E870E0D7
:100300000E94A7109093EB038093EA03822F992712
:1003100008958091EA039091EB039093ED0380930D
:10032000EC0308951F920F920FB60F9211242F9392
:100330003F934F935F936F937F938F939F93AF936D
:10034000BF93EF93FF934091C600E091EC03F091CF
:10035000ED03CF01019660E870E00E94A7109C01B8
:100360008091EA039091EB032817390739F0EA5D91
:10037000FB4F40833093ED032093EC03FF91EF910B
:10038000BF91AF919F918F917F916F915F914F91AD
:100390003F912F910F900FBE0F901F9018950895C9
:1003A0000E94530108958AE00E94D0010895CF93DE
:1003B000DF93EC0103C021960E94D001888188233D
:1003C000D1F7DF91CF9108952F923F924F925F9294
:1003D0006F927F928F929F92AF92BF92CF92DF9255
:1003E000EF92FF920F931F93CF93DF93CDB7DEB7BA
:1003F000A0970FB6F894DEBF0FBECDBF6B017C0196
:1004000019012A01611571058105910521F480E327
:100410000E94D0014BC06624772443015E010894FA
:10042000A11CB11C8501060D171DC701B601A20153
:1004300091010E94BA10F80160830894611C711C3C
:10044000811C911CC701B601A20191010E94BA1042
:1004500069017A01211531054105510519F773012B
:100460000894E108F108EA0CFB1CAA24BB246501EE
:1004700011C0F70180818A3010F4805D01C0895C71
:100480000E94D0010894A108B108C108D1080894BD
:10049000E108F10888279927DC0186199709A8093E
:1004A000B909A816B906CA06DB0619F7A0960FB651
:1004B000F894DEBF0FBECDBFDF91CF911F910F919A
:1004C000FF90EF90DF90CF90BF90AF909F908F9074
:1004D0007F906F905F904F903F902F900895EF9294
:1004E000FF920F931F937B018C0197FF0BC08DE24E
:1004F0000E94D00110950095F094E094E11CF11C4D
:10050000011D111D2AE030E040E050E0C801B701B4
:100510000E94E4011F910F91FF90EF90089520E158
:1005200030E040E050E00E94E401089528E030E02F
:1005300040E050E00E94E401089522E030E040E015
:1005400050E00E94E40108951F920F920FB60F929F
:1005500011248F939F93AF93BF9380912204909126
:100560002304A0912404B09125040196A11DB11D7E
:100570008093220490932304A0932404B093250431
:10058000BF91AF919F918F910F900FBE0F901F90D1
:100590001895609122047091230480912404909115
:1005A0002504E7E0660F771F881F991FEA95D1F7AA
:1005B0002FE130E040E050E00E94BA10CA01B901DA
:1005C0000895AF92BF92CF92DF92EF92FF920F9376
:1005D0001F935B016C010E94C9027B018C010E9488
:1005E000C9026E197F09800B910B6A157B058C057A
:1005F0009D05A8F31F910F91FF90EF90DF90CF9092
:10060000BF90AF900895019749F0880F991F880F08
:10061000991F0297F8940197F1F778940895CFEF16
:10062000D4E0DEBFCDBF7894109222041092230450
:10063000109224041092250484B5826084BD84B590
:10064000816084BD85B5826085BD85B5816085BDCD
:1006500080916E00816080936E0080918100826045
:1006600080938100809181008160809381008091DE
:1006700080008160809380008091B10084608093CD
:10068000B1008091B00081608093B00080917C00C7
:100690008F7780937C0080917C00806480937C00C5
:1006A00080917A00846080937A0080917A008260E1
:1006B00080937A0080917A00816080937A008091A3
:1006C0007A00806880937A001092C1000E940F0A1D
:1006D0000E94FC0DFDCFCF93DF93880F991F880FE9
:1006E000991FA0913801B0913901A80FB91FED9160
:1006F000FC911197309731F1EE0FFF1FED014A8108
:100700005B81672B81F4EA57FE4F0190F081E02D69
:1007100020A181E090E002C0880F991F4A95E2F77E
:10072000809528230EC0EA57FE4F0190F081E02DFE
:1007300020A181E090E002C0880F991F4A95E2F75E
:10074000282B20A3DF91CF910895CF93DF939C01B5
:10075000880F991F880F991FA0913801B091390116
:10076000A80FB91F4D915C9111974115510509F4DE
:100770005CC0220F331FE0911A01F0911B01E20FC0
:10078000F31F0190F081E02DE230F10521F480911A
:1007900080008F7706C0E330F10531F4809180004E
:1007A0008F7D809380001AC0309719F484B58F77BD
:1007B00005C0E130F10521F484B58F7D84BD0EC004
:1007C000E530F10521F48091B0008F7705C03697B0
:1007D00029F48091B0008F7D8093B000FA01EE0F74
:1007E000FF1FED014A815B81672B81F4E458FE4FC6
:1007F0000190F081E02D20A181E090E002C0880FFF
:10080000991F4A95E2F7809528230EC0E458FE4FC1
:100810000190F081E02D20A181E090E002C0880FDE
:10082000991F4A95E2F7282B20A3DF91CF910895D5
:100830009F92AF92BF92CF92DF92EF92FF920F936F
:100840001F93CF93DF936C017B015A01922EC0E07E
:10085000D0E007E010E0692D7727A114B10439F446
:100860000C2E02C0759567950A94E2F706C0002E1B
:1008700002C0759567950A94E2F761707070C601C1
:100880000E94A50361E070E0C7010E94A50360E03B
:1008900070E0C7010E94A503219601501040C830A6
:1008A000D105C9F6DF91CF911F910F91FF90EF9085
:1008B000DF90CF90BF90AF909F9008950F931F93BC
:1008C000CF93DF938C01EB0161E070E00E946B033A
:1008D000C801880F991FE0911A01F0911B01E80FE0
:1008E000F91F0190F081E02DE230F10551F4809183
:1008F0008000806880938000D0938900C093880036
:100900003CC0E330F10551F4809180008062809317
:100910008000D0938B00C0938A002FC0309729F4B9
:1009200084B5806884BDC7BD28C0E130F10529F4D5
:1009300084B5806284BDC8BD20C0E530F10541F4B6
:100940008091B00080688093B000C093B30015C060
:10095000369741F48091B00080628093B000C093DC
:10096000B4000BC0C038D1051CF460E070E002C0D8
:1009700061E070E0C8010E94A503DF91CF911F9153
:100980000F910895CF93DF939C01880F991F880FD3
:10099000991FC0913801D0913901C80FD91FA88182
:1009A000B981109719F480E090E045C0220F331F01
:1009B000E0911A01F0911B01E20FF31F0190F08109
:1009C000E02DE230F10521F4809180008F7706C0A0
:1009D000E330F10531F4809180008F7D80938000B9
:1009E0001AC0309719F484B58F7705C0E130F1054E
:1009F00021F484B58F7D84BD0EC0E530F10521F46E
:100A00008091B0008F7705C0369729F48091B000AF
:100A10008F7D8093B000AA0FBB1FAE58BE4FED91E3
:100A2000FC9180A199270A8002C0959587950A9428
:100A3000E2F781709070DF91CF910895CF93DF93AB
:100A4000880F991F880F991FA0913801B091390123
:100A5000A80FB91FED91FC911197EE0FFF1FEE58F3
:100A6000FE4F0190F081E02DED018A819B81A1E094
:100A7000B0E0082E02C0AA0FBB1F0A94E2F720E0E4
:100A800030E0672B11F021E030E0B90102C0660FC1
:100A9000771F8A95E2F7EF01A09680A199278A2314
:100AA0009B2386179707C9F720E030E040E050E02D
:100AB00004C02F5F3F4F4F4F5F4F888199278A2394
:100AC0009B2386179707A9F3CA01B90120E530E0F7
:100AD00040E050E00E947C1027E130E040E050E030
:100AE0000E94BA10CA01B901DF91CF9108952091F7
:100AF0007C00207F880F991F880F991FE0910001CB
:100B0000F0910101E80FF91F82818F70282B20934B
:100B10007C0061E070E080E090E00E94E102809162
:100B20007A00806480937A0080917A0086FDFCCF01
:100B300020917800809179009927982F8827332772
:100B4000822B932B0895CF92DF92EF92FF920F9317
:100B50001F936C017B0161E070E00E94A503F59496
:100B6000E7940027F7FC0095102FC801B7010E94F9
:100B7000E10260E070E0C6010E94A503C801B70170
:100B80000E94E1021F910F91FF90EF90DF90CF90B4
:100B90000895CF93DF93C3ECD3E061E070E08881E8
:100BA00099810E94A50364EF71E080E090E00E94CB
:100BB000E10260E070E0899199910E94A50364E6EA
:100BC00070E080E090E00E94E10283E0C33DD8073E
:100BD00021F7DF91CF91089561E070E083E090E02C
:100BE0000E94A50364E670E080E090E00E94E102CC
:100BF00060E070E083E090E00E94A5030895EF922A
:100C0000FF920F931F937C0161E070E086E090E01B
:100C10000E94A503EE0CFF1CEE0CFF1C0027F7FC46
:100C20000095102FC801B7010E94E10260E070E05A
:100C300086E090E00E94A5031F910F91FF90EF9036
:100C4000089581E090E00E94770520E030E085582B
:100C5000934014F021E030E0C901089581309105FE
:100C600019F0029751F514C0809103049091040487
:100C70008330910534F40196909304048093030427
:100C800013C0109204041092030480E090E00895D1
:100C90008091010490910204873091053CF4019603
:100CA00090930204809301040197089583E090E0FB
:100CB000909302048093010408950895AF92BF9227
:100CC000CF92DF92EF92FF920F931F93CF93DF9318
:100CD000FC01E057FE4F8081E82EFF24EE0CFF1C44
:100CE000EE0CFF1C1092EE031092EF031092F00333
:100CF0001092F1034EE1C42ED12C970144275527C1
:100D00008091EE039091EF03A091F003B091F10375
:100D1000820F931FA41FB51F8093EE039093EF03E0
:100D2000A093F003B093F103E091EF03FF27E9569E
:100D3000FE4F8081C82FDD27C7FDD095CC0FDD1F6A
:100D40005E0100E010E061E070E089E090E00E9468
:100D5000A503CE010E94030360E070E089E090E00B
:100D60000E94A503C5010E9403030F5F1F4F0532B8
:100D700011054CF3D695C7950F5F1F4F0430110531
:100D8000B4F362E370E080E090E00E94E102089436
:100D9000C108D108C114D10409F0AFCFDF91CF91C0
:100DA0001F910F91FF90EF90DF90CF90BF90AF9089
:100DB0000895AF92BF92CF92DF92EF92FF920F937E
:100DC0001F93CF93DF936C015A01161617061CF080
:100DD000C1E0D0E006C0EB016050744014F0CFEFEA
:100DE000D3E0E12C64E0F62EEC1AFD0A01E010E0FD
:100DF00012C061E070E0C6010E94A503CE010E940E
:100E0000030360E070E0C6010E94A503C7010E94D1
:100E100003030F5F1F4FA016B1065CF7DF91CF9160
:100E20001F910F91FF90EF90DF90CF90BF90AF9008
:100E30000895AB01BC0186E090E00E94D9060895B8
:100E400085E090E00E94C204892B19F080E090E0D8
:100E500008951092080481E090E008957F928F92A7
:100E60009F92AF92BF92CF92DF92EF92FF920F9339
:100E70001F93CF93DF935C016A0148017E2C6A3097
:100E800071051CF40AE010E006C08B01605074404C
:100E900014F00FEF13E02A3031051CF4CAE0D0E063
:100EA00006C0E9012050344014F0CFEFD3E071E0E8
:100EB000E72EF12C4CC0772021F00E9420078823D8
:100EC00071F461E070E0C5010E94A50361E070E08B
:100ED000C6010E94A5030C171D072CF01CC081E061
:100EE0008093180438C0C8010E94030360E070E0DA
:100EF000C5010E94A503CE01801B910B01960E94A3
:100F0000030360E070E0C6010E94A50381E094E065
:100F1000801B910B17C0CE010E94030360E070E0BC
:100F2000C6010E94A503C8018C1B9D0B01960E945F
:100F3000030360E070E0C5010E94A50381E094E036
:100F40008C1B9D0B0E9403030894E11CF11C8E1462
:100F50009F040CF0B0CFDF91CF911F910F91FF90C4
:100F6000EF90DF90CF90BF90AF909F908F907F9049
:100F70000895EF920F931F93CF93DF9361E070E09A
:100F800083E090E00E94A503C5E0D0E061E070E05E
:100F900086E090E00E94A503EE240CE211E020E23E
:100FA00033E048E050E060E273E08AE090E00E94C5
:100FB0002E0760E070E086E090E00E94A503C2305A
:100FC000D10554F020E233E048E050E060E273E005
:100FD0008AE090E00E942E072197C1F660E070E061
:100FE00083E090E00E94A50364EF71E080E090E070
:100FF0000E94E10281E090E00E942E060E945E06BF
:1010000068EE73E080E090E00E94E10281E090E011
:101010000E942E060E945E0664EF71E080E090E080
:101020000E94E102DF91CF911F910F91EF900895FF
:10103000CF93DF9361E070E084E090E00E94A5032D
:1010400064EF71E080E090E00E94E10260E070E017
:1010500084E090E00E94A503C8ECD0E06EE170E06F
:1010600080E090E00E94E10280911804882361F4FE
:101070000E9420078823B9F080911804882321F466
:101080008CE291E00E94FF0581E08093180410C07B
:101090000E942106882319F4219751F0DFCF81E0C7
:1010A0008093070405C0809100048823A9F3F0CF42
:1010B000DF91CF910895EF920F931F93CF93DF931A
:1010C00083E090E00E9477059093200480931F04B2
:1010D00082E090E00E947705FC0190931E048093CB
:1010E0001D0468E070E00E94A7109B01CF0160E240
:1010F00070E00E94A710229FC001239F900D329F95
:10110000900D1124680F791F645C7F4F70931A044F
:101110006093190400911F0410912004C80168E035
:1011200070E00E94A7109B01C80160E270E00E947D
:10113000A710229FC001239F900D329F900D112474
:10114000680F791F645C7F4F70931C0460931B04CD
:10115000E017F1070CF4F801F0931404E093130482
:10116000E536F1056CF084E690E0909312048093EC
:10117000110481E090E09093100480930F040AC062
:101180008AEF90E09093120480931104109210045F
:1011900010920F0480910F0490911004019731F484
:1011A00061E070E083E090E00E94A5038091180464
:1011B000882381F161E070E084E090E00E94A50363
:1011C0001092180490E080911704882309F491E0AC
:1011D00090931704913059F411E0E12E00E213E0EE
:1011E00024EF31E048E050E061E070E00AC0B1E097
:1011F000EB2E00E213E021E030E048E050E064EF45
:1012000071E087E090E00E942E0760E070E084E0EB
:1012100090E0AAC080910F0490911004892B31F4C2
:1012200060E070E083E090E00E94A503009111046B
:10123000109112042091190430911A04220F331FC7
:10124000220F331F60911B0470911C04660F771FDF
:10125000660F771FE1E0EE2E4BE050E08AE090E071
:101260000E942E0780910F0490911004892B31F475
:1012700061E070E083E090E00E94A503009111041A
:10128000109112042091190430911A04220F331F77
:10129000220F331F60911B0470911C04660F771F8F
:1012A000660F771F41E0E42E4BE050E08AE090E0CB
:1012B0000E942E0780910F0490911004892B31F425
:1012C00060E070E083E090E00E94A50300911104CB
:1012D000109112042091190430911A04220F331F27
:1012E000220F331F60911B0470911C04660F771F3F
:1012F000660F771FB1E0EB2E4BE050E08AE090E004
:101300000E942E0780910F0490911004892B31F4D4
:1013100061E070E083E090E00E94A5030091110479
:10132000109112042091190430911A04220F331FD6
:10133000220F331F60911B0470911C04660F771FEE
:10134000660F771FE1E0EE2E4BE050E08AE090E080
:101350000E942E0780910F0490911004892B31F484
:1013600060E070E083E090E00E94A503C0E0D0E080
:1013700000E010E06EE170E080E090E00E94E102A9
:10138000C8018F719070892B89F460E070E0CD2BDB
:1013900011F461E070E0EB0180910F049091100472
:1013A000892B21F483E090E00E94A503809118042A
:1013B000882361F40E942007882331F1809118046A
:1013C000882321F48CE291E00E94FF0581E0809364
:1013D00018040DC00E942106882331F40F5F1F4FAF
:1013E000083C110521F0C6CF81E08093070480916D
:1013F0000F0490911004892B61F460E070E083E0A9
:1014000090E00E94A50305C080910004882331F379
:10141000E1CFDF91CF911F910F91EF900895CF937E
:10142000DF93C3ECD3E061E070E0899199910E9471
:101430006B0383E0C33DD807B1F760E070E085E05F
:1014400090E00E946B03609760E070E08991999151
:101450000E94A50383E0C33DD807B1F784E090E084
:1014600090930E0480930D0490930C0480930B04CE
:1014700090930A048093090489E2809308041092EF
:1014800004041092030483E090E09093020480939C
:10149000010481E090E090931C0480931B049093DE
:1014A0001A048093190410921804109207041092E1
:1014B000060468EE73E084E090E00E94A30568EE05
:1014C00073E083E090E00E94A3050E942007882338
:1014D00059F081E0809318048093050488E090E03F
:1014E00090930A04809309040E94C902DC01CB0195
:1014F0000E94D40FDF91CF9108950F931F93CF9344
:10150000DF938C01C0E0D0E007C068EE73E084E0B8
:1015100090E00E94A3052196C017D107B4F3DF9194
:10152000CF911F910F910895EF920F931F93CF9337
:10153000DF9381E090E00E947D0AC3E1D0E00E9449
:10154000210600E010E0882311F001E010E06AEFCE
:1015500070E080E090E00E94E10260E070E084E0F2
:1015600090E00E94A503B80183E090E00E94A503EB
:101570006AEF70E080E090E00E94E10261E070E0DC
:1015800084E090E00E94A50360E070E0012B11F47C
:1015900061E070E083E090E00E94A503219779F676
:1015A00060E070E084E090E00E94A50360E070E0FD
:1015B00083E090E00E94A50368EE73E080E090E095
:1015C0000E94E10282E090E00E947D0A60ED77E0F7
:1015D00086E090E00E94A30568EE73E080E090E072
:1015E0000E94E10283E090E00E947D0A08EB1BE08C
:1015F00061E070E089E090E00E94A5038DE491E055
:101600000E94030360E070E089E090E00E94A5037F
:101610008DE491E00E9403030150104049F768EE09
:1016200073E080E090E00E94E10284E090E00E949C
:101630007D0A68EE73E083E090E00E94A30503E674
:1016400010E00E9420079927BC0184E090E00E94EE
:10165000A50364E670E080E090E00E94E1020150A2
:10166000104079F760E070E084E090E00E94A5030C
:1016700068EE73E083E090E00E94A30568EE73E0FB
:1016800080E090E00E94E10285E090E00E947D0A07
:1016900061E070E084E090E00E94A50360E070E00B
:1016A00083E090E00E94A50344EF51E064EF71E015
:1016B0008AE090E00E94D90664EF71E080E090E05B
:1016C0000E94E10244EF51E064EF71E087E090E0B6
:1016D0000E94D90664EF71E080E090E00E94E10290
:1016E00060E070E084E090E00E94A50361E070E0BB
:1016F00083E090E00E94A50344EF51E064EF71E0C5
:101700008BE090E00E94D90664EF71E080E090E009
:101710000E94E10244EF51E064EF71E088E090E064
:101720000E94D90660E070E084E090E00E94A5038A
:1017300060E070E083E090E00E94A50368EE73E053
:1017400080E090E00E94E10286E090E00E947D0A45
:1017500061E070E084E090E00E94A50361E070E049
:1017600083E090E00E94A503109218045EC083E01D
:1017700090E00E9477059093200480931F0482E0FC
:1017800090E00E9477059C0190931E0480931D04B5
:1017900068E070E00E94A710FB01C90160E270E000
:1017A0000E94A7109B01EE9FC001EF9F900DFE9F2E
:1017B000900D1124280F391F245C3F4F30931A04D9
:1017C00020931904E0911F04F0912004CF0168E0F8
:1017D00070E00E94A7108B01CF0160E270E00E94D0
:1017E000A710009FC001019F900D109F900D112424
:1017F000680F791F645C7F4F70931C0460931B0417
:10180000220F331F220F331F660F771F660F771FBC
:10181000EE2404EF11E04BE050E08AE090E00E94FB
:101820002E070E94200780931804809118048823B3
:1018300009F49DCFDF91CF911F910F91EF90089503
:10184000EF92FF920F931F93CF93DF938C017B0155
:10185000C0E0D0E013C061E070E089E090E00E9459
:10186000A503C8010E94030360E070E089E090E0F6
:101870000E94A503C8010E9403032196CE15DF052F
:1018800054F3DF91CF911F910F91FF90EF90089546
:101890000F931F93CF93DF93C8ECD0E065E070E027
:1018A000CE010E94200C259681E0C43FD807B1F7F5
:1018B000C4EFD1E065E070E0CE010E94200C2597D6
:1018C000C83CD105B9F700E010E064E670E080E0C4
:1018D00090E00E94E102C4E6D0E065E070E0CE0155
:1018E0000E94200C649681E0C43FD807B1F70F5FD7
:1018F0001F4F0330110549F7DF91CF911F910F91D1
:101900000895CF93DF932AE030E040E050E064E0B8
:1019100070E080E090E00E94FA0F6093F80370930B
:10192000F9038093FA039093FB0360E070E083E097
:1019300090E00E94A503C1E0D0E041E050E0BE018C
:1019400083E090E00E94D906229683E0C93ED80742
:10195000A1F761E070E083E090E00E94A503809130
:10196000F8039091F903A091FA03B091FB0388303A
:101970009105A105B105B1F089309105A105B10529
:101980002CF40497A105B105A4F005C00B97A1059F
:10199000B1057CF40CC082E090E00E942E060E940B
:1019A0005E0607C084EF91E00E94FF0502C00E941E
:1019B000480CC8EED3E041E050E0BE0183E090E087
:1019C0000E94D9062297B9F760E070E083E090E0CA
:1019D0000E94A50368EE73E080E090E00E94E102BF
:1019E000DF91CF910895EF92FF920F931F93CF93C2
:1019F000DF938091F6039091F7038C01159507957D
:101A00004091F4035091F50328EE33E0429F7001BA
:101A1000439FF00C529FF00C112423E0959587957D
:101A20002A95E1F79093F7038093F60361E070E065
:101A300083E090E00E94A503C0E0D0E018C061E020
:101A400070E089E090E00E94A503C8010E940303B2
:101A500060E070E089E090E00E94A503C8010E9468
:101A600003038091F6039091F703C80FD91FCE1599
:101A7000DF052CF360E070E083E090E00E94A503B6
:101A8000DF91CF911F910F91FF90EF900895AF924A
:101A9000BF92CF92DF92EF92FF920F931F93CF935B
:101AA000DF932091F2033091F3032230310514F4D7
:101AB00022E030E080E49FE1AC01249FC001259F3B
:101AC000900D349F900D11245C01CC24B7FCC09480
:101AD000DC2CC091F603D091F703D595C79561E052
:101AE00070E084E090E00E94A503EE24FF248701CB
:101AF0001EC060E070E089E090E00E94A503CE0186
:101B00000E94030360E070E089E090E00E94A5037A
:101B1000CE010E9403038091F6039091F703AA2758
:101B200097FDA095BA2FE80EF91E0A1F1B1FEA1495
:101B3000FB040C051D05ECF260E070E084E090E031
:101B40000E94A503DF91CF911F910F91FF90EF901D
:101B5000DF90CF90BF90AF900895CF92DF92EF9239
:101B6000FF920F931F93CF93DF93C0E0D0E061EC1F
:101B7000C62E62E0D62E50E4E52E52E0F52E0FEB95
:101B800011E021C0F601819191916F019093F703CB
:101B90008093F603F70181917F01992787FD909546
:101BA0009093F5038093F403F80181918F019927B5
:101BB00087FD90959093F3038093F2030E94F30CBA
:101BC0000E94470D21968091BD019091BE01C817DA
:101BD000D907C4F2DF91CF911F910F91FF90EF9041
:101BE000DF90CF9008950E94AD0D68EE73E080E025
:101BF00090E00E94E1020895CF93DF9380910D045D
:101C000090910E0490930C0480930B04809109042E
:101C100090910A0490930E0480930D04109207048F
:101C200020910804822F69E20E949B10992331F4CD
:101C300084E090E090930E0480930D04222331F40D
:101C400081E090E090930E0480930D0480910D0448
:101C500090910E048430910509F467C08530910598
:101C60005CF482309105D1F1833091050CF04AC0CB
:101C7000019709F0B9C00BC08830910509F48EC0F6
:101C80008B30910571F0079709F0AEC082C01092B9
:101C90000004C2E0D0E00E945B082197E1F71092B7
:101CA0000704809108048F5F809308048BE090E024
:101CB00090930A048093090481E0809300040E94B9
:101CC0005B0880910704882309F48EC08091060484
:101CD000882309F083C082E090E082C01092000463
:101CE00010920804C3E0D0E00E94B9072197E1F701
:101CF0008BE090E090930A048093090481E0809344
:101D0000060472C01092000410920804C2E0D0E0F1
:101D10000E94F30D2197E1F78BE090E090930A0485
:101D200080930904109206045FC090930A04809384
:101D3000090481E0809300041092180410920604B4
:101D40002F5F2093080460E070E083E090E00E9441
:101D5000A5030E9418088091080469E20E949B1064
:101D6000992331F487E090E090930A04809309046A
:101D700080911804882321F4809107048823A1F11D
:101D80008BE090E090930A04809309041092080479
:101D90002BC00E94810C84E090E022C081E090E0A2
:101DA00090930A048093090414C068EE73E080E005
:101DB00090E00E94E1020E94C90568EE73E080E0B5
:101DC00090E00E94E1020E94940A0E942007809302
:101DD000050480910504882341F706C083E090E064
:101DE00090930A0480930904DF91CF9108956F5F67
:101DF0007F4F61F4019751F40E94C9026093FC0384
:101E00007093FD038093FE039093FF0308956FEF9B
:101E10007FEF81E090E00E94F70E08950895089505
:101E2000CB01BA010E941A0108950E945B01992713
:101E300008950E946A0108950E9489010895862FDD
:101E40000E94D0010895CB010E94D7010895862FEA
:101E50000E94D00108950F931F938C016DE00E94A2
:101E60001F0F6AE0C8010E941F0F1F910F91089574
:101E70000F931F938C010E941F0FC8010E942B0F0C
:101E80001F910F9108950F931F938C010E94230FB0
:101E9000C8010E942B0F1F910F9108950F931F935C
:101EA0008C010E94270FC8010E942B0F1F910F91D8
:101EB0000895CB01BA013327442755270E94E40136
:101EC00008952AE00E94590F08950F931F938C01E3
:101ED0000E94610FC8010E942B0F1F910F9108955E
:101EE000AB01662777270E94610F0895EF92FF925A
:101EF0000F931F93CF93DF93EC017A018B0177FF50
:101F00000BC06DE20E941F0F10950095F094E094B5
:101F1000E11CF11C011D111D2AE0B801A701CE0131
:101F20000E94590FDF91CF911F910F91FF90EF9079
:101F300008950F931F938C010E94760FC8010E9491
:101F40002B0F1F910F9108952115310521F4642F56
:101F50000E941F0F08952A30310519F40E94760F50
:101F600008950E94590F08950F931F938C010E94AA
:101F7000A40FC8010E942B0F1F910F910895AB0170
:101F8000662757FD6095762F0E94760F08950F9370
:101F90001F938C010E94BF0FC8010E942B0F1F913D
:101FA0000F91089508950895009711F00E947110FF
:101FB0000895EF92FF920F931F937B018C0161159F
:101FC00071058105910529F460E070E080E090E002
:101FD0000CC00E946C10AA2797FDA095BA2FBC01D7
:101FE000CD01A80197010E94DC101F910F91FF9075
:101FF000EF900895EF92FF920F931F937B018C0156
:10200000621773078407950764F4261B370B480B88
:10201000590BCA01B9010E94D90FE60EF71E081F1D
:10202000191FC801B7011F910F91FF90EF900895FC
:10203000AF92BF92CF92DF92EF92FF920F931F93D6
:10204000CF93DF93EC01E880F9800A811B81C801FE
:10205000B7012DE133EF41E050E00E94BA1027EACA
:1020600031E440E050E00E947C105B016C01C8014B
:10207000B7012DE133EF41E050E00E94BA10CA01F0
:10208000B90124E13BE040E050E00E947C10A61A38
:10209000B70AC80AD90A1A141B041C041D0444F008
:1020A0008FEF9FEFAFEFBFE7A80EB91ECA1EDB1E72
:1020B000A882B982CA82DB82C5019F77DF91CF9166
:1020C0001F910F91FF90EF90DF90CF90BF90AF9056
:1020D00008950E941810089581EE93E00E94181050
:1020E0000895AA27BB278093E1039093E203A0936E
:1020F000E303B093E4030895629FD001739FF0015E
:10210000829FE00DF11D649FE00DF11D929FF00D87
:10211000839FF00D749FF00D659FF00D9927729FBE
:10212000B00DE11DF91F639FB00DE11DF91FBD0149
:10213000CF0111240895991B79E004C0991F9617C7
:1021400008F0961B881F7A95C9F78095089597FB2C
:10215000092E07260AD077FD04D049D006D00020EA
:102160001AF4709561957F4F0895F6F790958195D3
:102170009F4F0895A1E21A2EAA1BBB1BFD010DC0A3
:10218000AA1FBB1FEE1FFF1FA217B307E407F50727
:1021900020F0A21BB30BE40BF50B661F771F881F03
:1021A000991F1A9469F760957095809590959B0199
:1021B000AC01BD01CF01089597FB092E05260ED075
:1021C00057FD04D0D7DF0AD0001C38F45095409555
:1021D000309521953F4F4F4F5F4F0895F6F79095FB
:1021E0008095709561957F4F8F4F9F4F0895AA1BE3
:1021F000BB1B51E107C0AA1FBB1FA617B70710F0F2
:10220000A61BB70B881F991F5A95A9F78095909523
:10221000BC01CD010895EE0FFF1F0590F491E02D54
:0222200009941F
:10222200020103000000030001000300020003009A
:10223200030003000400030005001C01FFFFFFFF71
:10224200FFFF0600FFFF01000000FFFFFFFF02008B
:1022520003000500FFFFFFFF3A0104000000040035
:102262000100040002000400030004000400040052
:10227200050004000600040007000200000002003E
:10228200010002000200020003000200040002003A
:102292000500FFFFFFFF030006000900FFFFFFFF2D
:1022A200050008000B00FFFFFFFF040007000A0003
:1022B2000D1C25292D1B1E5E747A705B422D201E7B
:1022C20027364854564E4031292B374958615F52C0
:1022D2003D240F050B213F5E747A705B428100083A
:1022E20008000000040404000000000408000000CC
:1022F20004000000000000000000000000000000D8
:10230200000008000000100008000000000800089B
:10231200000000000800080000000000080008009B
:102322000000100008000000000800080000001073
:10233200000800000000080004080800000004046F
:10234200040000000004080000000000000000007B
:10235200000000000000000000000000000000007B
:1023620008080404080A0A0A080808080A080404F3
:10237200080A040404040404040404040404040411
:1023820004040808040408080808040408080808E3
:1023920008040408080808080404040408080808D3
:1023A20004040808080804040808080808040408C3
:1023B2000808080404040408040808080404080AB5
:1023C2000A0A080808080A0A04040804040804049B
:1023D20004040404040404040404040404041010A3
:1023E20010F702F702F7027B01F702F702F702F792
:1023F20002F7027B01A901DE01F702F702F7027B75
:1024020001F702F7027D027B0138027B01FB017BAF
:1024120001DE017B01A9017D027B017D0266017D56
:10242200023E017D02F702F7027D02F7023802380E
:102432000252035203CC0252037D027D02CC02F708
:1024420002F7027D02F702380238025203520352A7
:1024520003F70252037D0252037D02CC02F702F718
:10246200027D02F7023802380252035203CC0252B2
:10247200037D027D02CC02F702F7027D02F70238E9
:1024820002380252035203CC02520338027D023850
:10249200027D02CC02F702F702F7027B01F702F794
:1024A20002F702F702F7027B015203BD03F702F7BC
:1024B20002F7027B01F7027D02BD0366013E017D48
:1024C2000266017D02F7027D0252037D02CC027D8B
:1024D20002F7027D0252037D02BD03CC027D027D22
:1024E200027D0204000300060009000B000A000836
:1024F20000070056312E304A4265726B433230304B
:062502003701000000009B
:00000001FF
